:1000000020C03AC039C038C037C05AC235C034C029
:1000100033C032C031C030C02FC053C39BC20000B8
:10002000000036000000000037000000000038002B
:100030000202020202020102040810200102000072
:10004000040011241FBECFE5D2E0DEBFCDBF10E01B
:10005000A0E6B0E0E8EBF8E002C005900D92A23611
:10006000B107D9F722E0A2E6B0E001C01D92A532A7
:10007000B207E1F76DD31EC4C3CF909124028091E3
:100080002302891B8F7090E00895F7DF892B91F090
:1000900090912402809123029817E1F3E0912402C9
:1000A000EF5FEF70E0932402F0E0EE59FF4F8081A4
:1000B00090E008958FEF9FEF0895813021F48AB585
:1000C0008F778ABD0895823019F48AB58F7DF9CF74
:1000D000833021F480B78F7D80BF0895843019F478
:1000E0008CB58F7D8CBD08951F93CF93DF93282F00
:1000F00030E0F901E45CFF4F8491F901EA5CFF4FC5
:10010000D491F901E05DFF4FC491CC23A1F0162FEB
:100110008111D3DFEC2FF0E0EE0FFF1FE65DFF4F04
:10012000A591B4918FB711110AC0F894EC91D095B4
:10013000DE23DC938FBFDF91CF911F910895F89458
:10014000EC91DE2BF6CFCF93DF9390E0FC01EA5CDD
:10015000FF4F2491805D9F4FFC0184918823D1F053
:1001600090E0880F991FFC01EC5DFF4FA591B491C1
:10017000FC01E65DFF4FC591D491623071F49FB7E9
:10018000F8943C91822F809583238C93E8812E2BC9
:1001900028839FBFDF91CF9108958FB7F894EC919A
:1001A0002E2B2C938FBFF6CF109224021092230295
:1001B000109284001092850080938800109287002E
:1001C000109286001092830010928200C29AC09A08
:1001D000BA9AB89888EA8DB980EF8EB90895CF930E
:1001E000DF93BA98B8981DB880EF8EB9EDE3F0E0D0
:1001F0008491E7E3F0E0D491E1E3F0E0C491CC2313
:10020000C9F081115ADFEC2FF0E0EE0FFF1FE25E24
:10021000FF4FA591B491EC91ED2361F080916000C6
:10022000C3DF8BE391E09093830080938200DF91A2
:10023000CF91089582E2F4CF0F931F93CF93DF9372
:10024000C7E0D0E0082F10E0B8010C2E02C0759571
:1002500067950A94E2F7617083E046DF61E084E02D
:1002600043DF60E084E040DF219770F7DF91CF91BA
:100270001F910F910895FF920F931F93CF93DF93D8
:10028000FCDE892B09F416C100DF873CA9F4F5DEFA
:10029000892BB1F3FADE8093600080916000883092
:1002A00078F380916000883758F76091600081E0B2
:1002B00090E0F2D294DFE4CF803781F4DEDE892B48
:1002C000F9F2E3DE9FEF980F9436D0F68093610049
:1002D0006091610082E090E0DFD2D2CF8137A9F453
:1002E000CCDE892B69F2D1DEEC01853648F6CDDE15
:1002F000DD27CC0FDD1FCC0FDD1FC657DF4F8883F6
:10030000C4DE8983C2DE8A83BBCF823731F5B5DE96
:10031000892B09F4B5CFB9DE80938A00B6DE8093CD
:100320008B00B3DE80938C0080E090916100891790
:1003300008F0A6CFE82FF0E090918A00EE0FFF1FA3
:10034000EE0FFF1FE657FF4F908390918B00918334
:1003500090918C0092838F5FE8CF833701F58DDE1B
:10036000892B09F48DCF91DEF82E8FDED0E0C0E02E
:100370008C011127CF1508F083CF90916100C91728
:1003800008F07ECF82DEF801EC0FFD1FEE0FFF1F9D
:10039000EE0FFF1FE657FF4F80832196EBCF843788
:1003A00001F56BDE892B09F46BCF6FDEF82E6DDE65
:1003B000D0E0C0E08C011127CF1508F061CF9091FB
:1003C0006100C91708F05CCF60DEF801EC0FFD1F7B
:1003D000EE0FFF1FEE0FFF1FE657FF4F81832196A1
:1003E000EBCF853701F549DE892B09F449CF4DDE86
:1003F000F82E4BDED0E0C0E08C011127CF1508F0BD
:100400003FCF90916100C91708F03ACF3EDEF80166
:10041000EC0FFD1FEE0FFF1FEE0FFF1FE657FF4F04
:1004200082832196EBCF863799F427DE892B09F456
:1004300027CF2BDEEC01853608F022CF26DEDD2724
:10044000CC0FDD1FCC0FDD1FC657DF4F8B8318CFBE
:100450008737D1F412DE892B09F412CF16DE809390
:100460008D0080E090916100891708F009CFE82F96
:10047000F0E090918D00EE0FFF1FEE0FFF1FE6578B
:10048000FF4F93838F5FEECF883709F0F9CE80E07E
:1004900090916100891708F0F3CEE82FF0E0EE0F9D
:1004A000FF1FEE0FFF1FE657FF4F108211821282CF
:1004B0008F5FEECFDF91CF911F910F91FF90089545
:1004C0001F920F920FB60F9211242F933F938F9389
:1004D0009F93AF93BF9380911F0290912002A091B0
:1004E0002102B091220230911E0226E0230F2D3707
:1004F00068F129E8230F0396A11DB11D20931E0268
:1005000080931F0290932002A0932102B0932202B5
:1005100080911A0290911B02A0911C02B0911D02C1
:100520000196A11DB11D80931A0290931B02A09306
:100530001C02B0931D02BF91AF919F918F913F918B
:100540002F910F900FBE0F901F9018950296A11D2E
:10055000B11DD4CF1F920F920FB60F9211242F937B
:100560003F934F935F936F937F938F939F93AF933B
:10057000BF93CF93EF93FF9380918900823009F46A
:1005800074C0B8F4882389F1813009F454C0FF9114
:10059000EF91CF91BF91AF919F918F917F916F918B
:1005A0005F914F913F912F910F900FBE0F901F9031
:1005B0001895843009F45FC0B8F1853041F784E0C4
:1005C000809389009FB1809123028F5F8F7020916B
:1005D0002402281709F473C080932302E0912302B8
:1005E000F0E0EE59FF4F908319C08FB1882331F0AE
:1005F0008FB1869590918800891319C0789B12C09D
:10060000E0918600F0918700309729F08091850075
:1006100080938400099581E0809389001FB8B89A7F
:100620008EE721C084E0F8CF8FB1882321F0B898FD
:1006300088EA8DB917C08091840090918500981741
:10064000B1F3809184008F5F8F7080938400E0917C
:100650008400F0E0EE58FF4F80818FB982E08093F4
:100660008900B89A80E78EB992CF83E080938900A1
:10067000B8981FB8D5CF85E080938900B89880E7F7
:100680008EB9E0918200F0918300309709F47FCF1A
:10069000C0912302809124028C1709F478CF8EB187
:1006A0008E7AE9F3759B73CF909124028091230297
:1006B000891B8F7090E00995C093240268CFB89889
:1006C000AFCF1F920F920FB60F9211242F933F932B
:1006D0004F935F936F937F938F939F93AF93BF934A
:1006E000CF93EF93FF93E0918200F09183003097D6
:1006F00081F0C0912302809124028C1751F09091D7
:10070000240280912302891B8F7090E00995C09389
:10071000240210928900B898B29B18C0B09BFCCFFD
:1007200088EA8DB980EF8EB9FF91EF91CF91BF919B
:10073000AF919F918F917F916F915F914F913F9179
:100740002F910F900FBE0F901F90189588EFE9CF53
:1007500081B781BF78948AB582608ABD8AB581608D
:100760008ABD83B7887F836083BF789489B78260AE
:1007700089BF80B7807F80BF80B7806880BF80B727
:10078000806480BF8CB580648CBD8FEF8DBD80B7D9
:10079000876080BF86B18877866886B9379A62E0BD
:1007A00081E0D1DC61E083E0CEDC61E084E0CBDCA1
:1007B00085B7877E806185BF85B7806285BF81E010
:1007C00090E062D080936000809160008F3F41F4A0
:1007D00083E2809360006091600081E090E05CD0F3
:1007E00082E090E051D080936100809161008F3F62
:1007F00041F48AE080936100609161008AE090E0BA
:100800004BD090E080E02FE1FC01EE0FFF1FEE0FD8
:10081000FF1FE657FF4F1082118212822383019639
:100820008436910589F7DBDC80E006DD80E004DDBD
:1008300080E002DD80E000DD10E0809161001817AB
:1008400080F080E0F9DC80E0F7DC80E0F5DC81E03E
:10085000F3DC85B7806285BF889585B78F7D85BFBE
:10086000E3CFC12FD0E0CC0FDD1FCC0FDD1FC6576B
:10087000DF4F8B81806EE0DC8A81DEDC8981DCDC0D
:100880008881DADC1F5FD9CFE199FECF9FBB8EBB99
:10089000E09A99278DB30895262FE199FECF1CBACF
:1008A0009FBB8EBB2DBB0FB6F894E29AE19A0FBEA8
:0808B00001960895F894FFCFB2
:0208B800230A11
:00000001FF
